:020000040000FA
:1000000000040020E90800007D050000C908000088
:1000100087050000910500009B050000000000001E
:100020000000000000000000000000000D090000BA
:10003000A505000000000000AF050000B9050000A4
:10004000C3050000CD050000D7050000E105000054
:10005000EB050000F5050000FF05000009060000A3
:10006000130600001D0600002706000031060000F0
:100070003B060000450600004F0600005906000040
:10008000630600006D060000770600008106000090
:100090008B060000950600009F060000A9060000E0
:1000A000B3060000BD060000C7060000D106000030
:1000B000DB060000E5060000EF060000F906000080
:1000C000030700000D0700001707000021070000CC
:1000D0002B070000350700003F070000490700001C
:1000E000530700005D07000067070000710700006C
:1000F0007B070000850700008F07000099070000BC
:10010000A30700001FB500F003F88DE80F001FBD26
:1001100000F0E0BB1FB56FF00100009040100390AD
:10012000029001904FF010208069000B420900F00E
:100130001F045DF822300120A04083434DF8223097
:10014000684600F045F91FBDF0B54FF6FF734FF458
:10015000B4751A466E1E11E0A94201D3344600E080
:100160000C46091B30F8027B641E3B441A44F9D14B
:100170009CB204EB134394B204EB12420029EBD17E
:1001800098B200EB134002EB124140EA0140F0BD8F
:10019000DE4992B00446D1E90001CDE91001FF2209
:1001A0004021684600F03CFB94E80F008DE80F000A
:1001B000684610A902E004C841F8042D8842FAD12B
:1001C00010216846FFF7C0FF1090AA208DF8440068
:1001D000FFF7A0FF00F0F3F84FF01024A069102201
:1001E0006946803000F002F9A069082210A900F0E9
:1001F000FDF800F0D8F84FF080510A6949690068AD
:100200004A43824201D8102070470020704710B541
:10021000D0E900214FF0805002EB8103026944696C
:100220006243934209D84FF01022536903EB8103D4
:100230000169406941438B4201D9092010BD5069D1
:10024000401C01D0002010BD0F2010BD70B501680A
:100250000446AF4D4FF01020072952D2DFE801F0DD
:10026000330419293C1E2500D4E902656468294637
:10027000304600F0CDF82A462146304600F0B6F868
:10028000AA002146304600F09FFA002800D0032043
:1002900070BD00F051FB4FF4805007E0201DFFF7C8
:1002A000AAFF0028F4D100F047FB60682860002016
:1002B00070BD241D94E80700920000F085FA002824
:1002C000F6D00E2070BD8069401C12D0201DFFF7B3
:1002D0009EFF0028F6D109E08069401C09D0201D4E
:1002E000FFF789FF0028EDD1606820B12046FFF7B5
:1002F0004FFF042070BDFFF70DFF00F060F800F025
:1003000052F8072070BD10B50C46182802D0012005
:10031000086010BD2068FFF799FF206010BD4FF006
:100320001024A069401C05D0A569A66980353079E4
:10033000AA2808D06069401C2DD060690068401C64
:1003400029D060692CE010212846FFF7FDFE3168B6
:1003500081421CD1A16901F18002C03105E030B1B8
:1003600008CA51F8040D984201D1012000E0002094
:100370008A42F4D158B1286810B1042803D0FEE7AE
:10038000284600F057F862496868086008E000F005
:1003900016F800F008F84FF480500168491C01D0AD
:1003A00000F0A4FAFEE7BFF34F8F5A4801685A4A9B
:1003B00001F4E06111430160BFF34F8FFEE74FF09E
:1003C00010208169491C02D0806900F0AEB87047E6
:1003D000524A01681160121D416811604F4A8168DC
:1003E00010321160111DC068086070472DE9F0419E
:1003F00017460D460646002406E03046296800F000
:10040000A7F8641C2D1D361DBC42F6D3BDE8F08153
:1004100070B50C4605464FF4806608E0284600F0AB
:1004200084F8B44205D3A4F5806405F58055002C0A
:10043000F4D170BD4168044609B1012500E00025F2
:100440004FF010267069A268920000F0BDF9C8B1A3
:10045000204600F01AF89DB17669A56864684FF4EB
:10046000002084420AD2854208D229463046FFF74E
:10047000CFFF2A4621463046FFF7B8FFFFF79FFF20
:10048000FFF791FFFFF746FEF8E72DE9FF414FF038
:100490001024616980680D0B01EB800000F6FF708D
:1004A000010B0020009001900290024603906846E4
:1004B00001230BE0560902F01F0C50F8267003FAD6
:1004C0000CFC47EA0C0740F82670521CAA42F1D3F4
:1004D0000AE04A0901F01F0650F8225003FA06F616
:1004E000354340F82250491C8029F2D3A169090BF9
:1004F0004A0901F01F0150F822408B409C4340F80C
:100500002240FFF765FFBDE8FF8100005C090000A5
:10051000000000200CED00E00400FA050006004099
:10052000144801680029FCD07047134A0221116069
:1005300010490B68002BFCD00F4B1B1D186008687E
:100540000028FCD00020106008680028FCD070470C
:10055000094B10B501221A60064A1468002CFCD021
:10056000016010680028FCD0002018601068002886
:10057000FCD010BD00E4014004E5014008208F4993
:1005800009680958084710208C4909680958084724
:1005900014208A49096809580847182087490968BA
:1005A0000958084730208549096809580847382004
:1005B00082490968095808473C2080490968095858
:1005C000084740207D4909680958084744207B496D
:1005D00009680958084748207849096809580847B0
:1005E0004C20764909680958084750207349096822
:1005F0000958084754207149096809580847582084
:100600006E490968095808475C206C49096809580F
:100610000847602069490968095808476420674904
:100620000968095808476820644909680958084753
:100630006C20624909680958084770205F490968B9
:100640000958084774205D49096809580847782007
:100650005A490968095808477C20584909680958C7
:10066000084780205549096809580847842053499C
:1006700009680958084788205049096809580847F7
:100680008C204E4909680958084790204B49096851
:10069000095808479420494909680958084798208B
:1006A00046490968095808479C204449096809587F
:1006B0000847A0204149096809580847A4203F4934
:1006C000096809580847A8203C490968095808479B
:1006D000AC203A49096809580847B02037490968E9
:1006E00009580847B4203549096809580847B8200F
:1006F0003249096809580847BC2030490968095837
:100700000847C0202D49096809580847C4202B49CB
:10071000096809580847C82028490968095808473E
:10072000CC202649096809580847D0202349096880
:1007300009580847D4202149096809580847D82092
:100740001E49096809580847DC201C4909680958EE
:100750000847E0201949096809580847E420174963
:10076000096809580847E8201449096809580847E2
:10077000EC201249096809580847F0200F49096818
:1007800009580847F4200D49096809580847F82016
:100790000A49096809580847FC20084909680958A6
:1007A00008475FF480700549096809580847000048
:1007B00003480449024A034B704700000000002030
:1007C000680900006809000040EA010310B59B07B2
:1007D0000FD1042A0DD310C808C9121F9C42F8D0AB
:1007E00020BA19BA884201D9012010BD4FF0FF305C
:1007F00010BD1AB1D30703D0521C07E0002010BD72
:1008000010F8013B11F8014B1B1B07D110F8013BFD
:1008100011F8014B1B1B01D1921EF1D1184610BDDE
:1008200002F0FF0343EA032242EA024200F005B865
:100830007047704770474FF000020429C0F01280E3
:1008400010F0030C00F01B80CCF1040CBCF1020F83
:1008500018BF00F8012BA8BF20F8022BA1EB0C0158
:1008600000F00DB85FEAC17C24BF00F8012B00F84E
:10087000012B48BF00F8012B70474FF0000200B574
:10088000134694469646203922BFA0E80C50A0E8B3
:100890000C50B1F12001BFF4F7AF090728BFA0E861
:1008A0000C5048BF0CC05DF804EB890028BF40F82D
:1008B000042B08BF704748BF20F8022B11F0804F6F
:1008C00018BF00F8012B7047014B1B68DB68184705
:1008D0000000002009480A497047FFF7FBFFFFF7B7
:1008E00011FC00BD20BFFDE7064B1847064A10600B
:1008F000016881F30888406800470000680900002B
:10090000680900001F030000000000201EF0040F13
:100910000CBFEFF30881EFF3098188690238007892
:10092000182803D100E00000074A1047074A126860
:100930002C3212681047000000B5054B1B68054AB1
:100940009B58984700BD00000703000000000020EE
:100950005809000004000000001000000000000022
:1009600000FFFFFF0090D003FFFFFFFFFFFFFFFF2F
:10097000FFFFFFFFFFFFFFFFFFFFFFFFFFFFFFFF87
:10098000FFFFFFFFFFFFFFFFFFFFFFFFFFFFFFFF77
:10099000FFFFFFFFFFFFFFFFFFFFFFFFFFFFFFFF67
:1009A000FFFFFFFFFFFFFFFFFFFFFFFFFFFFFFFF57
:10100000000001206D1E0000A51E0000A71E0000AC
:10101000A91E0000AB1E0000AD1E00000000000075
:10102000000000000000000000000000AF1E0000F3
:10103000B11E000000000000B31E0000B51E00003D
:10104000B71E0000B71E0000B71E0000B71E00004C
:10105000B71E0000B71E0000B71E0000B71E00003C
:10106000B71E0000B71E0000B71E0000B71E00002C
:10107000B71E0000652A0000B71E0000B71E000062
:10108000B71E0000B71E0000B71E0000B71E00000C
:10109000B71E0000B71E0000B71E0000B71E0000FC
:1010A000152B00001B2B0000B71E0000B71E000010
:1010B000B71E0000B71E0000000000000000000086
:1010C000B71E0000B71E0000B71E0000B71E0000CC
:1010D000B71E0000B71E0000B71E000010B5054C7B
:1010E000237833B9044B13B10448AFF300800123D4
:1010F000237010BD6833002000000000A0590000DC
:101100000C4B43B10C480D4910B5AFF300800C48AF
:10111000036823B910BD0A48036833B97047094B07
:10112000002BF7D0BDE810401847064B002BF5D038
:10113000184700BF00000000A05900006C330020D9
:101140006833002000000000154B002B08BF134B34
:101150009D46A3F5803A00218B460F461348144A5A
:10116000121A03F079FD0F4B002B00D098470E4B5D
:10117000002B00D098470020002104000D000D48EE
:10118000002802D00C4800F02DFE03F017FD2000CF
:10119000290000F050FE00F022FE00BF0000080011
:1011A00000000120000000002B1E0000683300201A
:1011B0008C760020E51D000000000000704770479D
:1011C00001F0AAB801F098B801F0A8B801F08CB805
:1011D00003680BB9031D03600068704770B50B4EC0
:1011E00005463046FFF7F4FF284600F0FDFF0446B1
:1011F000284601F091F800F001FE68603046FFF7E4
:10120000E7FF201C18BF0120404270BD843300203E
:1012100038B505460948FFF7DBFF284601F002F81C
:10122000003018BF01204442686808B100F0F8FDA2
:101230000248FFF7CDFF204638BD00BF84330020B1
:101240002DE9F0410A4C0F461646054698462046C1
:10125000FFF7BEFF43463A463146284600F072FA91
:1012600005462046FFF7B4FF2846BDE8F08100BFE1
:10127000843300202DE9F84316461C4680460F466D
:1012800001F04AF80546404601F02EF881464046F6
:1012900001F044F8B6FBF5F305FB136303B917B986
:1012A0004FF0FF3443E0331981444B45F8D82148CF
:1012B000FFF78EFFC4B33146404601F01DF8B6FB80
:1012C000F0F300FB1363C31AA34228BF2346BA07F7
:1012D00001D19D4220D9AB4228BF2B4699461A46E0
:1012E0003946D8F8040003F0ACFCA94507D2D8F879
:1012F0000400A5EB0902FF21484403F0ADFCD8F837
:1013000004202B463146404600F0B2FF50B9A4EB12
:1013100009044E444F44CDE7B3FBF5F36B439946C4
:101320003A46EFE74FF0FF340248FFF751FF2046FF
:10133000BDE8F88384330020F8B50D461446064610
:1013400000F0D2FF0746304600F0E8FF38442F197E
:10135000B84202D24FF0FF30F8BD0FD81048FFF767
:1013600037FFC4B12946304600F05EFF88B92946F0
:10137000304600F0C1FF241A0544F2E739463046F2
:1013800000F0BAFFB7FBF0F303FB10700028E1D1C7
:10139000E4E74FF0FF340248FFF71AFF2046F8BD9C
:1013A00084330020024B0A461B680021184700BF07
:1013B000B03200206C22002103F04EBC10B16C2131
:1013C000FFF7F0BF70470000002303604360B9B926
:1013D000184B8360184BC360184B0361184B436173
:1013E000184B8361184BC361184B036203F17453AC
:1013F000A3F52303A3F6924343628166002070475E
:10140000134B8360134BC36003F1794303F57403FB
:1014100003F501630361104B4361104B836103F1DA
:10142000D14303F5C01303F51E63C3610C4B036284
:101430000C4BE1E767E6096A85AE67BB72F36E3C69
:101440003AF54FA57F520E518C68059BABD9831F8F
:10145000D89E05C107D57C3639590EF7310BC0FF30
:10146000A78FF964A44FFABEFFF7AEBF2DE9F04F86
:10147000CBB000F1080300931A46002302A852F8EB
:10148000044B40F823400133082BF7D102AC94E819
:101490005004059BDDF824B0069D089FDDF81CC0B4
:1014A0000193ADF118024FF0000EBEF10F0F62D89C
:1014B0004B7891F800901B0443EA0968CB7848EA1E
:1014C000030391F8028043EA08231364354B53F871
:1014D0002E301846136C4FEAF528184488EAB518E0
:1014E0008CEA070388EA75682B4080447B40984467
:1014F000019BCDF804A0D8444344184646EA0409A9
:101500004FEA743306EA040B83EAB40309EA0A09D2
:1015100049EA0B0983EAB4530EF1010E4B44BEF1C4
:10152000400F434401F1040102F10402BB461BD108
:10153000029309970690CDF820C00795039404966E
:10154000CDF814A00023009A02A9126851F82310C4
:101550000A440099013341F8042B082B0091F2D181
:1015600000204BB0BDE8F08FB24667462646AC4639
:101570001C46054699E7936BD2F804904FEAF3486E
:1015800088EA734888EA9328536A1846136818440F
:101590004FEAB94383EAF913804483EAD90908EB97
:1015A000090392E73851000003682DE9F041054630
:1015B00003F03F0013449A422B6084BF6B680133F1
:1015C0000F46144688BF6B6008B3C0F140069642D0
:1015D00013D805F128083246404403F032FB414657
:1015E0002846FFF743FFD8B93744A61B3446311BC2
:1015F0003F2C39440DD80F46002084B128352246AF
:101600003946284403F01DFB0020BDE8F081164652
:10161000ECE72846FFF72AFF10B9403CE7E72046F1
:10162000BDE8F0810AB1FFF7BFBF10467047FFF772
:10163000F9BF000037B502680D464168530F43EA11
:10164000C1030446180ED1008DF80000180C02F0FA
:101650003F028DF801008DF80330180A0B0E372A6F
:101660008DF804304FEA11438DF802008DF80530F3
:101670008DF807104FEA112394BFC2F13802C2F16E
:1016800078022E498DF806302046FFF7CBFF002860
:1016900052D1082269462046FFF786FF00284BD129
:1016A000E37A2B7063896B70A3681B0AAB70A36825
:1016B000EB70E37B2B71E3896B71E3681B0AAB7101
:1016C000E368EB71E37C2B72638A6B7223691B0AFC
:1016D000AB722369EB72E37D2B73E38A6B736369EF
:1016E0001B0AAB736369EB73E37E2B74638B6B74C0
:1016F000A3691B0AAB74A369EB74E37F2B75E38BBF
:101700006B75E3691B0AAB75E369EB7594F82330DD
:101710002B76638C6B76236A1B0AAB76236AEB7697
:10172000A36E4BB994F827302B77E38C6B77636A01
:101730001B0AAB77636AEB7703B030BD3852000009
:10174000FFF778BF08B510461A4603F07AFA002072
:1017500008BD38B5044690F9000001230D468340CA
:101760004FF0A0415AB1C1F808352046012101F0DF
:10177000AFFF29462046BDE8384001F095BFC1F8CB
:101780000C35F2E770B50E460446154601F074FFBD
:10179000013606D02A4620460021BDE87040FFF7FA
:1017A000D8BF70BD0022FFF7EDBF0000114B1A78C3
:1017B00010B5EAB100241C7000F0B2FD4FF0604398
:1017C0000D4AC3F8B02F0D4A0221C2F8F0104FF4B1
:1017D0008071C2F80413A2F57C3240F2FF3111602F
:1017E000074AC3F8404EC3F8802E0122C3F8002EEA
:1017F00010BD00BFB432002055CEACC5000004E0DF
:101800000D0001004FF060420346D2F8800EC00781
:101810000DD5D2F8002EDA40D00708D59B0003F191
:10182000604300E000BF1A68D207FBD51960084684
:10183000704700002DE9F74F90E8080404465B6804
:10184000984763681B6A98423FD0DAF82030DAF88C
:101850000840CAF82000A0EB0308DAF80C30314841
:1018600008EA0308844246464FF0000727D0DAE929
:101870000A239AF839B0A8FB0089CDE90023002596
:10188000BBF1000F2BD05A464046494603F0A8FA58
:10189000DDE9002312EB080243EB090390465A46A8
:1018A000994606460F4603F0A7FAB8EB000069EB2D
:1018B0000101A94208BFA0420AD2CAE90A01DAE935
:1018C0000C23B6185F41CAE90C6703B0BDE8F08F7E
:1018D000013647F10007001B61EB0501EDE72246E9
:1018E0002B464046494603F093FA224606460F46E9
:1018F000404649462B4603F08BFADDE9008918EB98
:10190000020849EB0309A94508BFA04502D2CAE96C
:101910000A89D4E7013647F10007B8EB040869EB00
:101920000509F4E740420F00824206D98A420BD9EA
:10193000884294BF002001207047884206D98A421D
:101940008CBF0020012070470120704700207047A5
:101950002DE9F04707464668FFF76CFF7D68D7F82A
:1019600000A06B68002B49D0D5E90C89D3E90001B0
:10197000894508BF804504D3DAF81430BDE8F04744
:101980001847D5E90623B0EB080861EB09094B4578
:1019900008BF42452C6906D3AB681E4A934219D151
:1019A000444528BF44462A6A336A1444EA6814400E
:1019B000A342E1D0DAF81030204698473B685B68D4
:1019C000984722460146306AFFF7AEFF00B33B68F6
:1019D0005B69D3E795F839205AB14046494603F090
:1019E0000BFA0C4A002303F013FA844228BF044682
:1019F000D9E7A3FB080103FB0911F2E73369306A59
:101A0000F26818441040DAF81030BDE8F047184783
:101A1000BDE8F08740420F0003682DE9F74F054607
:101A20001B6898472B689B6998472A4B06680122D8
:101A3000002E08BF1E461F2302FA03F1B1425FFACF
:101A400083FB02D0013BF7D19B464768214C3B1FEB
:101A50001D2B28BF20273B1F4FF0070A16F1FF3030
:101A60000AFA03FA4FF0000343F1FF313246C4FB98
:101A70000A0103F0CDF96C680023236063602B68D2
:101A80005B68CDE90001984720626C684FF0000860
:101A90004FF000093A46C4E90A89A66084F839B0D3
:101AA0000120002103F0A8F9DDE900230138C4E991
:101AB00006230123E060C4F810A02846C4E90C897D
:101AC00084F83830FFF7B6FE284603B0BDE8F04F83
:101AD000FFF73EBF40420F0070B5044600F0E2F849
:101AE0002368DB68984763685B68A3B12046FFF70B
:101AF000A1FE65686E68D5E90C01D6E9002399421C
:101B000008BF904207D3F3686B602B68002BEAD0C4
:101B1000B0689847E7E72046FFF71AFFBDE8704036
:101B200000F0CAB8436893F8383010B504460BB9D2
:101B3000FFF772FF00F0B6F82046FFF77BFE00F0DB
:101B4000BBF86368D3E90C0110BD08B5FFF7EAFFE5
:101B500008BD00000048704778520000024B1B6827
:101B60000BB1024818477047B83200207852000085
:101B700003F0C8B803F078B8F0B572B6234A244F22
:101B8000002313604FF0E0224FF0FF36516801F060
:101B90000F0101311D469A0002F1604202F56142D7
:101BA0004FEAC30EC2F88060C2F88061002202EBE7
:101BB0000E043C440132082A84F80053F7D1013363
:101BC0009942E8DC134B4FF020625A6040F2FA521F
:101BD0009860DA6000221D6111469C1801320C2ABF
:101BE0002176FAD14FF0FF3259629A620A4ADA62DC
:101BF0001F221A634168036840F2000282F31488CE
:101C00009D4682F310880847F0BD00BF10E000E059
:101C100000E100E000ED00E0020000C073B500F05C
:101C200041F8112101A8FFF7BDFD01244FF0A045A7
:101C300004269DF9043004FA03F3C5F8083596200C
:101C400000F00FF99DF9043004FA03F3C5F80C35E0
:101C5000962000F006F9013EEBD104269DF90430F0
:101C600004FA03F3C5F808354FF4C87000F0F9F82A
:101C70009DF9043004FA03F3C5F80C354FF4C8702D
:101C800000F0EFF8013EE9D1D2E7EFF31080C04356
:101C900000F001007047EFF30580003018BF01200D
:101CA0007047000008B500F08FFA024A136801334C
:101CB000136008BDD0330020054B1A6832B11A6892
:101CC000013A1A601B680BB900F086BA704700BF72
:101CD000D03300202DE9F0411B4C1C4E237836EA0E
:101CE000200628BF0646012B8EB00F46904600D135
:101CF000FEE7174DFFF7D6FF01232370FFF7DCFF48
:101D00002B6800220133342101A82B6002F0A4FFCC
:101D10002B680196012BCDF80880039704D134225B
:101D200001A90C4802F08DFF342201A90A4802F0F3
:101D300088FF0A4B1B680BB10748984700202070AA
:101D40000EB0BDE8F08100BFDC3300200101FF8050
:101D5000D4330020E033002014340020D833002096
:101D600008B511467246FFF7B5FF50B9FFF793FF6C
:101D700010B9FFF78AFF08B930BFFDE7012000F076
:101D80002EF8014808BD00BF0F01FF800C4A136800
:101D900010B51844EFF30881884205D3094B0C2293
:101DA0001A604FF0FF3010BD07490C6824B1074995
:101DB000096821448842F1D21060184610BD00BF66
:101DC000BC32002088760020483400204C340020AB
:101DD00008B508B1FFF722FFFEE70120704708B5FC
:101DE000FFF7F6FF012070477047704708B5FFF70F
:101DF000FBFF08BD08B5FFF7F8FF08BD37B505467E
:101E000002F000FF044630B90090034601462A461E
:101E10000248FFF7A5FF204603B030BD1F01018037
:101E200002F0F8BE70477047704708B5FFF7FBFF38
:101E3000FFF7FAFF08BD08B5FFF7F4FFBDE808405B
:101E400002F028B970B50446FFF784FE0646FFF796
:101E50007CFE05463046FFF778FE401BA042F9D3D2
:101E600070BD4FF47A735843FFF7ECBF0749084A37
:101E7000084B9B1A03DD043BC858D050FBDC0648D6
:101E8000804706488047064800470000AC590000DC
:101E9000AC320020683300203D1F000025230000E5
:101EA00049110000FEE7FEE7FEE7FEE7FEE7FEE77A
:101EB000FEE7FEE7FEE7FEE71030024B43F8201096
:101EC000704700BFD0310020094B1B78062B0CD186
:101ED000084B1B681A0708D1074B186800F0F00080
:101EE000A0F130035842584170470020704700BFAE
:101EF000E00F00F0E40F00F0E80F00F00C4B1B784F
:101F0000062B10D10B4B1B681A070CD10A4B186813
:101F100000F0F003302B08D000F0E000A0F1400307
:101F2000584258417047002070470120704700BF59
:101F3000E00F00F0E40F00F0E80F00F008B5FFF745
:101F4000DDFF28B18B4B8C4A1B68C3F3042313605D
:101F5000FFF7BAFF10B1894B894A1A60FFF7CEFF2D
:101F600028B1884B884A1B68C3F342331360FFF7DC
:101F7000ABFF20B1854AD36823F08073D360FFF7AD
:101F8000BDFF40B14FF080430022C3F80C21C3F8DD
:101F90001021C3F83825FFF797FF10B17C4B0322BF
:101FA0001A60FFF791FF40B17A4B05221A600122B7
:101FB0009A6700229A603F225A60774B1B78062B63
:101FC0000AD1764B1B68190706D1754B1B6803F0C5
:101FD000F003502B00F08680FFF790FF28B1714B83
:101FE000714A1B6803F04F031360FFF787FF48B186
:101FF0004FF08043D3F80024D20744BF6FF00102B2
:10200000C3F80024694AD2F8883043F47003C2F858
:102010008830BFF34F8FBFF36F8F4FF01023D3F88B
:102020000022002A03DBD3F80432002B2FDA604BA6
:102030000122C3F80425D3F80024002AFBD04FF076
:1020400010221521C2F80012D3F80024002AFBD078
:102050004FF010231522C3F80422554B1A46D3F82B
:1020600000140029FBD00021C3F80415D2F8003475
:10207000002BFBD0BFF34F8F4C494E4BCA6802F484
:10208000E0621343CB60BFF34F8F00BFFDE74A4BC5
:102090004A4A1A604FF0804301220021C3F81825F4
:1020A000C3F804119A60D3F80421002AFBD0374901
:1020B000CA6842F08072CA60D3F85C2542F480326C
:1020C000C3F85C25D3F85C2542F00302C3F85C2515
:1020D0004FF0A04340F20132C3F84827384B0022AA
:1020E0001A6108BD4FF08052364BD2F80414C3F881
:1020F0002015D2F80814C3F82415D2F80C14C3F82C
:102100002815D2F81014C3F82C15D2F81414C3F8FB
:102110003015D2F81814C3F83415D2F81C14C3F8CB
:102120004015D2F82014C3F84415D2F82414C3F88B
:102130004815D2F82814C3F84C15D2F82C14C3F85B
:102140005015D2F83014C3F85415D2F83414C3F82B
:102150006015D2F83814C3F86415D2F83C14C3F8EB
:102160006815D2F84014C3F86C15D2F84424C3F8AB
:10217000702531E7240300104035014074C007404A
:102180000DF0ADBA440200103C050040F0ED00E057
:10219000A005004010560040E00F00F0E40F00F0F2
:1021A000E80F00F058020010E40E004000ED00E0DF
:1021B00000E001400400FA05C03200200090D00386
:1021C000000004E000C00040024803780BB100F0BA
:1021D00051B97047C4320020024B012200201A700E
:1021E00000F056B9C43200200B4B187810B500220D
:1021F00088B10A481A704FF08051C2604C690B696F
:102200000749426063438260036101F09CF800303B
:1022100018BF0120404210BDC532002040330020CD
:10222000A8520000002070472DE9F0410E4601F051
:1022300063FA0D4FDFF8348005460424401BB84292
:1022400001D8042C05D0201C18BF01204042BDE855
:10225000F081002301223146404601F0B3F80446E4
:1022600001F04AFAEAE700BF3F0D030040330020C7
:102270002DE9F04F85B03ABB4FF0FF3005B0BDE817
:10228000F08F2B68039301F037FA06EB050B8246BB
:102290000023009303AA04235946404601F05CF84A
:1022A000044601F029FAA0EB0A00484509D9043593
:1022B000002CE1D1BD42E4D1201C18BF01204042D6
:1022C000DCE7042CE4D0F2E723F00303D71815462B
:1022D0000E248E1ADFF80880DFF80890EAE700BFC6
:1022E000403300203F0D0300024B1869DB68C01A21
:1022F000704700BF40330020064BDA688A4205D899
:102300001A69914202D25B68186870474FF0FF303B
:10231000704700BF40330020042070470020704702
:1023200070470000064A0748002350F8231042F87F
:1023300023100133372BF8D1034B9A60704700BF4D
:10234000D03100200010000000ED00E0014B4360A0
:10235000002070479C5200000846704700207047DC
:10236000024B1868003018BF01207047503400201D
:1023700008B510461A4602F064FC002008BD0000B3
:1023800010B50022054B53E8001F01EA020043E8A4
:10239000000494F0000FF6D110BD00BF50340020AF
:1023A00008B5FFF7EDFF002008BD00002DE9F04162
:1023B00015461F4686B080460E460122144B53E850
:1023C000004F44EA020143E8001090F0000FF6D1FC
:1023D000E4B9A54212D1FFF7D3FFD8F808300024A2
:1023E00093B1022201A88DF804200294039604956B
:1023F00005979847204606B0BDE8F08106EB04300B
:1024000000F0F8FA0134E4E71846F4E71120F2E7A7
:10241000503400202DE9F0410F4686B01146804629
:102420001E460124124A52E8005F45EA040342E8CE
:10243000003090F0000FF6D1BDB9B208384600F078
:10244000F1FAFFF79DFFD8F8082062B10C9B8DF8D8
:10245000044001A8029503970496059390472846E7
:1024600006B0BDE8F0811046FAE71120F8E700BF9A
:102470005034002072B6054A1378191C18BF012188
:102480000133017013700020704700BF54340020E6
:10249000044B20B11A78013A1A7000207047187066
:1024A00062B6FAE75434002000284FEA411114DBE9
:1024B00000F1604300F01F02400903F56143800012
:1024C000C9B200F1604083F8001300F561400123B8
:1024D0009340C0F880310360704700F00F00024B5A
:1024E000C9B21954704700BF14ED00E000F18040FC
:1024F00000F5C040002382B0036003680193019B94
:1025000002B07047800000F1A040D0F8003723F4FB
:102510004033C0F80037D0F8003743EA0141C0F833
:1025200000177047054B4FF0FF32072843F8202073
:1025300084BF1B1883F84820704700BF5834002020
:1025400010B5134C94F85430FBB9FF21E218013355
:10255000202B82F83010F9D10021C8B2FFF7E2FF3A
:1025600001310C29F9D107210620FFF79DFF4FF417
:10257000BE70FFF7BBFF074B4FF00042C3F80423C8
:10258000012384F85430002010BD082010BD00BF86
:10259000583400200060004030B52A4C231893F9CD
:1025A000302001324CD18A78002A40D0002354F8E0
:1025B000235001354FEA830234D1251802F18042BD
:1025C00002F5C04285F83030002544F82350D2F897
:1025D00010550B784C7825F498151B04240525F428
:1025E000F85504F4801403F44033C2F81055234323
:1025F0000402D2F8105504F4F85423432B43C2F8D4
:1026000010354B78012B4FF0A04214D18340C2F813
:10261000083500F5E0704FF0A043032243F8202076
:10262000002030BD0133082BC1D1042030BDFE2273
:1026300083F83020E5E701238340C2F80C35E8E752
:10264000082030BD5834002038B50E490D18044616
:1026500095F83000072809D8FFF764FF95F9303066
:10266000094A03F5A273002042F823000B19FF2248
:1026700083F8302004F5E0744FF0A043022243F8C1
:10268000242038BD5834002000600040F0B52E4EA4
:10269000331893F93030002B54DACD78002D0BBF6E
:1026A000082300230C240824A34201D10420F0BDF8
:1026B00056F82370013731D137185CB287F83040B3
:1026C00046F8232015B9334483F848008B783BB390
:1026D000830003F1A043D3F8002722F00202C3F8DD
:1026E000002709782DB3A30003F1804303F5C0430D
:1026F0000904D3F8102522F4473222F44072C3F8BB
:1027000010250202D3F8104502F4F85201F44031CA
:102710000A432243C3F810250020F0BD0133C3E76C
:102720004A7800F5E0734FF0A047920047F8232065
:10273000D7E7083C344494F8502042EA811184F8E9
:102740005010E9E70820F0BD5834002010B51F4CA8
:10275000231893F93020072A18DD224492F84830D4
:102760009B09032B0DD14FF0A043D3F81035C34084
:1027700013F0010F0CBF02210321BDE81040FFF749
:10278000C1BE012B14BF03210221F6E7D3B2072BF0
:102790001AD8930003F1804303F5C043D3F8100522
:1027A00040F00100C3F8100502F14000800080B243
:1027B000FFF79CFE41B154F822302BB1012303FAFC
:1027C00002F2034BC3F8042310BD00BF58340020AD
:1027D000006000400E4B034493F93020072A02DDCD
:1027E0000021FFF78FBED3B2072B10D8930003F15F
:1027F000804303F5C043D3F8101521F00101C3F85D
:102800001015012303FA02F2024BC3F808237047A4
:10281000583400200060004038B50446FFF7DAFF66
:102820000D490A1992F93020D0B207289FBF02F54E
:10283000A2720A4B002543F8225004F5E0724FF0D3
:10284000A043022543F82250FFF76CFE0B19FF222C
:1028500083F8302038BD00BF5834002000600040AD
:102860002DE9FF4700245A4A5A4E5B4D019401213D
:10287000A2F5C04052F8043B012B80B206D1D6F835
:1028800004330B4202D0FFF731FE0C43AA424FEA59
:102890004101EDD1514B1B68012B0AD14FF4BE70A1
:1028A000FFF724FE4FF0A04344F00044D3F8103566
:1028B000019314F0FF0F38D1002C80F285800023A3
:1028C0000293DFF81C914FF0FF330393012600249D
:1028D000A0464FF0A04709EB080393F95020531C82
:1028E00061D0D2B222F0C005E90804A8084402F081
:1028F000070310F804EC06FA03F31EEA030F52D0A4
:1029000009EB050E92099EF930E059F82EA0BAF1B4
:10291000000F26D1032A46D10DF1080C1CF801E066
:102920004EEA030E0CF801E01DE02D4F01260025B4
:10293000344210D0AB0003F1804303F5C043D3F819
:102940001005D3F8101557F8253023B1C1F3014114
:10295000C0F3042098470135082D4FEA4606E7D119
:10296000AAE7032AD8D005F5E07110F80C0C57F847
:1029700021101842C1F3014105D0022913D1032AC5
:102980000BD1114604E003290DD1032A05D1022100
:102990002846FFF7B7FD0134E4B2BAF1000F02D0C8
:1029A00011462846D04708F10108B8F1040F92D12A
:1029B00054B14FF0A043019AD3F81035934203D09D
:1029C0000193029B039382E704B0BDE8F08700BF48
:1029D0000061004000600040206100407C610040D8
:1029E00058340020024AD2F80034002BFBD0704744
:1029F00000E001400A4908B50223C1F80435BFF3DD
:102A00006F8FBFF34F8FC1F80805FFF7EBFF00236F
:102A1000C1F80435BFF36F8FBFF34F8F08BD00BF00
:102A200000E0014070B50E4D16460122C5F80425A0
:102A3000BFF36F8FBFF34F8F0024B44207D1002341
:102A4000C5F80435BFF36F8FBFF34F8F70BD51F8DA
:102A5000243040F82430FFF7C5FF0134EDE700BF14
:102A600000E00140104B1A6813B5D2B10F4CD4F8F6
:102A70000823D20715D500221A601B68019302A90A
:102A8000019BD4F8083501F8053D094800F0D8FC51
:102A9000074800F0C9FC20B1064A0123C4F80833F6
:102AA000136002B010BD00BF00D1004000D0004054
:102AB000C852000004D0004000F58023F7B514335D
:102AC0000025124E1B0329460127AE460528EAB20F
:102AD00002D8345C944206D8421E0D4B53F8223083
:102AE000984703B0F0BD940004F5807453F804C017
:102AF000BCF1000F08D043F804E007FA02F21143DA
:102B00001A590192019A89B20135DFE7DC520000BF
:102B1000003500200420FFF7CFBF0520FFF7CCBF12
:102B200037B550E8023F1FFAA3F5C488A54202BF9B
:102B3000BFF32F8F00220DE0C48925448489A5426C
:102B400028BF2D1BC3EA054540E80254002CE8D1FC
:102B50004FF001028DF803200193019B9DF80320A3
:102B60000B6002F0FF0322B14B880068184403B0E9
:102B700030BD1846FBE70A884B889A4209D150E8D5
:102B8000022FC2EA224240E80223002BF7D10120A3
:102B9000704700207047000070B5064E05460024BF
:102BA00056F824300BB1284698470134042CF7D14D
:102BB00070BD00BF203500200B4A0C4B51881420FB
:102BC00000FB0131CB6833B9042049681070012241
:102BD000074800F0F7BB05230649137002238B80DA
:102BE000012200230968F3E7383500205035002022
:102BF000543300208C35002007B50023054900938D
:102C0000054A09680548082300F0A6FB03B05DF8F3
:102C100004FB00BF8C350020F0520000543300202C
:102C200007B50023009301460823034A034800F038
:102C300093FB03B05DF804FBE8520000543300201E
:102C400013B500230C46009301460423074A0848A5
:102C500000F082FB38B9074B142202FB0434012335
:102C6000237402B010BD0E20FBE700BFE452000049
:102C7000543300205035002037B50A480A4B4268CB
:102C80009C88196853880325033305709BB2002084
:102C900000909B0001EB8401044800F05DFB03B051
:102CA00030BD00BF383500208C3500205433002063
:102CB0004388033300EB8303994209D382884FF69C
:102CC000FF739A4206D00088B0FA80F0400970473E
:102CD0000220704701207047144A142303FB002090
:102CE00070B50B6844680D4604F5805653B15C8896
:102CF000033403EB8404A64202D9236801330BD1C9
:102D0000002070BD0834F6E72C60012070BD638898
:102D1000033304EB8304EEE731462046FFF7C8FF98
:102D20000128F4D0F0D30228EAD0E4E7503500209F
:102D3000436873B505460C466BB3254AD1688B4290
:102D400029D31269934226D813F0030223D12149D3
:102D50000089098988421ED12868996888421AD159
:102D60001D494868834203D900F5805083420ED341
:102D70008A6993420DD902F58052934209D2012308
:102D800023800020B0FA80F0400902B070BD1346E5
:102D9000F6E70A20F6E7002323801E462388012B4E
:102DA00001D90020F1E7019601A92088FFF794FFDF
:102DB00018B9238801332380F0E7019B2A689968BA
:102DC0009142F1D16B60034B1B892B81DDE700BF82
:102DD0005433002038350020503500202DE9F843C9
:102DE0001C461E4B1B7806460F4615467BB38AB31E
:102DF00084B3DFF870804FF01409A388012B02D947
:102E00000A20BDE8F88309FB03F318F803302BB957
:102E10002146A088FFF760FF20B92060A388013316
:102E2000A380EAE723681EB1998832889142EFD1E6
:102E300047B99A6885E80C00094B1B892B81002053
:102E4000BDE8F88319883A889142E1D1F1E7022080
:102E5000BDE8F8830520BDE8F88300BF30350020C9
:102E6000383500205035002008B5074B191D58880B
:102E7000FFF732FF18B1BDE80840FFF7FDBEBDE81F
:102E80000840FFF799BE00BF383500202DE9F04714
:102E9000A64EDFF8BC8288B004463746336823B9B3
:102EA0004146A348FFF73CFE30603D682A78531E38
:102EB000052B00F2DF81DFE813F0060073007300DA
:102EC000F400F4004F0124B19A4B00225A6001240F
:102ED00025E02B79032B1ED8DFE803F016023C47D0
:102EE00095490B78022B084632D00B7D022B4FF010
:102EF000010340F0138214225343C2180020C85427
:102F00005068FFF78DFE03E001232B71FFF774FE7D
:102F1000002800F0C080874B00225A600E24142243
:102F2000002103A801F098FE41F61D539C423B6826
:102F30001A7808BF0024013A0494052A00F2AE81F1
:102F4000DFE812F09A019E01C401D401E001EA0118
:102F50000023D0E779497A48002302222B718A8026
:102F60000122096800F02EFAD2E7744C4FF00009F4
:102F700085F804902068704DFFF752FE714BD4F82D
:102F800000E05A8814235343EA1805F80390516867
:102F90002160A188C2F804E011810222A280B7E773
:102FA000B5F81490DFF890A114236CB103FB09A3CA
:102FB000EA881889D11C01441981C2F57F425989D8
:102FC000FD320A445A8182E703FB09A319895C6830
:102FD000AB7D04EB8104062B05D8DFE803F01F4529
:102FE0002D3B14515F000F24142303FB09A3EA882F
:102FF0001889D11C01441981C2F57F425989FD32DB
:103000000A445A818BE75048504900234360AB691A
:103010000360FFF78DFE002800F02A810223AB75C4
:10302000002300930423EA182146454800F094F950
:10303000002830D00E24D7E72B69002B14BF0323C0
:103040000123AB750023009305F10C02042304F166
:103050000801EAE70123AB750022EB8800929B0090
:103060002A6904F10C01E0E7032A0CBF05230623BB
:10307000AB7500230093042305F10802E118D4E79F
:103080000623AB75314B19882F4B5868FFF7D8FDD5
:1030900004460028A8D108B0BDE8F08741F61D54C9
:1030A000A2E7002C7FF413AF2B79012B23D005D39B
:1030B000022B41F61D5418BF0F2430E702232B7159
:1030C000039404940594EB6803930DF10A0103A89B
:1030D000FFF72EFE002800F0CB800498BDF80A1000
:1030E0008388EB8003882B81FFF7AAFD0446002C20
:1030F0007FF415AFCFE7DFF85C9021464B4603AA7B
:10310000A81DFFF76BFE044650B9B9F804100498E7
:10311000FFF796FD04460A2CE9D141F61D54FEE660
:1031200008220021484601F097FDF4E74C350020C5
:103130007835002030350020503500208C350020B7
:1031400054330020383500201435002094350020F9
:103150004835002098350020002C7FF4B8AE724B23
:103160001A7B5AB11C731A78013A062A00F282803F
:10317000DFE802F0495E6669806C77001A78072AFA
:10318000F1D801A151F822F0A93100006731000007
:1031900067310000CF310000E3310000033200004E
:1031A00003320000CB3100001A89604901321A81D4
:1031B00000225A801A730A78B2FA82F252099A727D
:1031C0000A7DB2FA82F25209DA72012207E0584906
:1031D00058688A884088033202448A8002221A7022
:1031E000C1E7524C5A885249142505FB024208682F
:1031F000546850608888108102228A800C60062200
:10320000EDE70722EBE79A7A32B1484900229A7239
:10321000CA680AB9097C51B9DA7A62B10022DA7255
:10322000424A116A39B992F8242022B101225A8007
:10323000FFF71AFE5AE700221A705A805A606CE7AC
:10324000FFF71AFD52E7FFF7B7FC4FE706221A70A7
:10325000364A5B88142101FB03235868FFF7E0FC22
:1032600044E707221A7000225A60FFF7C5FC3DE7C9
:103270000A2454E60F2452E600238DF80C300DE0AA
:1032800001228DF80C201A89ADF818209A88ADF823
:103290001A20DB68059300238DF81C3003A8FFF784
:1032A0007BFC0023414623483B60FFF764FC01227E
:1032B000214B53E8000FA0EB020143E8001595F005
:1032C000000FF6D100297FF4E9ADE4E602228DF883
:1032D0000C201A89ADF818209A88ADF81A20DA68FF
:1032E00005929B7D9A1F53425341D5E703228DF8E7
:1032F0000C20DA88ADF818201A89ADF81A20DB689E
:103300000593CBE704228DF80C20DB88ADF818304C
:103310000023ADF81A30F3E70523AEE7074A137030
:1033200000235360F9E600BF3835002050350020F7
:103330008C3500207835002088350020303500207D
:103340004068FFF7A3BD0B4620B11BB103601146D7
:103350001B6818470E2070472DE9F043DDF81C80EC
:103360009646F0B1EAB1D0F800C0BCF1000F1BD016
:10337000EBB14768D7F80490B3FBF9F709FB1737AF
:10338000AFB942EA010E1EF0030F07D1C768B94278
:1033900004D34C1E05691C44AC420BD91020BDE877
:1033A000F0830E20BDE8F0830820BDE8F0830920FB
:1033B000BDE8F083CDF81C80DCF80C40A446BDE8E5
:1033C000F0436047F0B5B8B1D0F800E0BEF1000FAF
:1033D00014D0AAB14768D7F800C00CF1FF370F42EC
:1033E00008D1C768B94205D34C1E05690CFB0244DD
:1033F000AC4207D91020F0BD0E20F0BD0820F0BD72
:103400000920F0BDDEF81040A446BDE8F04060475A
:10341000026813685268934291BFD01A80680130E5
:10342000801888BFC01A7047036881681A685B6893
:103430008B4234BF01330023D31A5842584170479E
:10344000F8B5044600200D4600F05CF82046FFF772
:10345000EBFF10B1237C002B3CD12268A668536897
:103460005168B14234BF01310021516030B111685F
:10347000A068814234BF013100211160E2686068B8
:10348000511E072920D8DFE801F004101F141F1F68
:103490001F182A78C2542046FFF7BAFF23689A689B
:1034A000904200D99860002415E02A8820F8132063
:1034B000F1E72A6840F82320EDE7D5E9006700EB43
:1034C000C300C0E90067E6E7294602FB030001F0FC
:1034D000B8FBE0E70424002000F016F82046F8BD11
:1034E00072B6024A1368013313607047A03500209A
:1034F000034A1368013B136003B962B6704700BF0B
:10350000A0350020FFF7ECBFFFF7F2BF00F5E07237
:103510004FF0A04353F82230C3F30143032B0C4B6D
:103520001B6823FA00F30CBF01210221DB070ED533
:10353000084B01291B5C02D15A0602D470479B0636
:1035400005D5054B054A1B6852F8200018477047FF
:1035500048360020243600204C360020A4350020B8
:103560000A4A1268C240D20703460ED5084A115CC7
:1035700011F0020F03D0C90601D4FFF765B8D25C81
:10358000D20602D51846FFF747B9704744360020E7
:103590002436002073B5344D344E2B5C13F0010FEC
:1035A000044601D1D90656D52B5D9A0704D5C3F33D
:1035B0000013DAB2002A3CD003238DF804302B5DCF
:1035C000C3F38103D9B2002201298DF807208DF8B9
:1035D000062001D003291FD18DF805302B5DD806B8
:1035E0001DD501A9224A2046FFF750F8214B1B6840
:1035F000E340D90708D52B5D5A0601D49B0603D5B5
:1036000001212046FFF7A2F8012303FA04F43368EE
:103610001C43346002B070BD8DF80520DEE79DF8D4
:10362000052004F5E0734FF0A041920041F82320FB
:10363000EAE78DF806304FF0A04301A9D3F804352E
:10364000ADF80420E34003F0010320468DF8053077
:10365000FEF7A2FFD8E7012303FA00F4336823EA58
:1036600004033360D6E700BF243600204436002030
:103670000D3500004836002010B5017001310446B8
:103680000CD007490620FEF717FCFEF759FF054945
:1036900094F900208B5C43F001038B5410BD00BFF4
:1036A000612800002436002038B5044600780D4615
:1036B000FFF756FF94F90000044B1A5C65F3830290
:1036C0001A54C0B2BDE83840FFF764BF243600206A
:1036D00038B5044600780D46FFF742FF94F9000024
:1036E000044B1A5C65F341021A54C0B2BDE838407D
:1036F000FFF750BF24360020014BD3F80405704774
:103700000010014000487047F852000073B51F4E8A
:103710001F4A31781F4C51B1002313601368009386
:10372000009B4FF48033C4F8083302B070BD1A4BCD
:1037300001251D604FF48033C4F80833D4F80435F4
:1037400023F00303C4F80435D4F8103523F00F0335
:1037500043F00403C4F81035D4F8083543F00303EC
:10376000C4F80835C4F840151160136801930B497B
:10377000019B0920FEF7A0FB02210920FEF794FE21
:10378000074B25601D603570CFE700BF5036002025
:103790004091004000900040049000405D1B0000FC
:1037A00044900040024B01221A60D3F80005704794
:1037B0004490004013B50446FEF774FA0A4AC2F872
:1037C0004045D2F8043313F4803308D107490B6025
:1037D0000B680193019B4FF48033C2F80433FEF76A
:1037E0006BFA02B010BD00BF009000404091004055
:1037F000024B4FF40072C3F80021704700E100E073
:10380000024B4FF48032C3F8082370470090004009
:10381000044B00221A6082B01B680193019B02B026
:10382000704700BF4091004070B51468002C1546E9
:103830000ADB6FF00042944206D08C4201D220B1E4
:1038400003552B6801332B6070BD1946FDF7DAFF75
:10385000F7E72DE9F04387B0DDE90E6756EA070385
:1038600005468846914605D1302307B0BDE8F043B0
:10387000FFF7DABF18220021684601F0EDF90024B5
:10388000304639460A22002301F0C2FA30320DF8E0
:1038900004200023304639460A2201F0B9FA0646D0
:1038A0000F4656EA070304F10104E9D1013C4A46F8
:1038B0001DF8043041462846FFF7B6FF002CF5D12D
:1038C00007B0BDE8F08300002DE9FF4706460F462C
:1038D000904607254FF00009EA00DDE90C0101F0F0
:1038E0007FFAC0B2B9F1000F01D100B93DBB174B4F
:1038F000020900F00F04EC4603F1100A1868596839
:10390000E646AEE8030008335345F446F6D1B9F174
:10391000000F00D142B104AB1A44394612F8103CF2
:1039200030464246FFF780FF04AB1C44424614F881
:10393000103C39463046FFF777FF4FF0010915F18B
:10394000FF35C9D204B0BDE8F08700BF00530000C6
:10395000FFF76ABF2DE9F04F87B01C4606460D46BB
:103960009346FDF723FF00230593BBF1000F00F002
:10397000BD809D42C0F2BA800CBF012305F1FF3526
:1039800003934FF000081BF80830002B00F0AD80C7
:10399000252B40F0B18008F101071BF80730791C96
:1039A0004BB1A3F12302D2B2162A04D8834820FADD
:1039B00002F2D2070CD41BF80120002A00F0B680D6
:1039C000682B07D1682A00F0AC8002230F46BDE0C7
:1039D0000F46E2E76C2B40F0EE806C2A00F0A480EA
:1039E0000323F3E7012B04F1040A226805D0022B1C
:1039F00006D090464FEAE879BBE04FFA82F8F9E743
:103A00000FFA82F8F6E7B9F1750F03D009F0DF027B
:103A1000582A24D1042B12D1073424F00704D4E906
:103A2000002304F1080AB9F1750FCDE900232946F6
:103A300005AA304600F0B180FFF746FFAFE0022B49
:103A400004F1040A226806D0072B06D0012B08BF18
:103A5000D2B20023E7E792B2FBE7D317E3E7B9F16D
:103A6000630F08D1237805AA2946304604F1040AD9
:103A7000FFF76EFF93E0B9F1730F0ED104F1040A62
:103A80002468013C14F8013F002B00F0888005AA4F
:103A900029463046FFF7C8FEF4E7B9F1700F1FD191
:103AA000302305AA2946304604F1040A2468FFF7AA
:103AB000BBFE782305AA29463046FFF7B5FE22460D
:103AC000E317CDE90023294605AA3046B4E71BF8E1
:103AD000083005AA29463046FFF73AFF08F10108E9
:103AE000B845F4D3B9F1000F04D16EB9059807B009
:103AF000BDE8F08F1BF8083005AA29463046FFF7CD
:103B000027FFA24647464AE0039B002BEED1059BC8
:103B10009D422BBF9DF80C209DF80C30F25473553C
:103B2000E4E70123023711E00423FBE773B1682BBC
:103B30003FF44BAF6C2B3FF453AF6A2B33D07A2B4F
:103B400033D0742B33D04C2B33D000231BF8079089
:103B5000B9F1640F03D0B9F1690F7FF454AF042BAE
:103B60007FF440AF073424F00704D4E9008904F15E
:103B7000080AB8F1000F79F1000309DA2D2305AA2C
:103B800029463046FFF750FED8F1000869EB490995
:103B9000CDE9008905AA29463046FFF75AFE07F10C
:103BA00001085446EFE6052310E706230EE7072336
:103BB0000CE708230AE7002BC8D0BEE701ED7F0021
:103BC0000FB407B504AB6FF0004153F8042B019319
:103BD0000020FFF7BFFE03B05DF804EB04B07047B0
:103BE00008B50348FDF7FAFAB0FA80F0400908BDBD
:103BF000543600200148FDF70BBB00BF54360020AF
:103C000010B580B1094C4FF0FF33236000F060FD28
:103C100000B240B92068421C01D130BFFDE7831FCC
:103C20005842584110BD002010BD00BFC8320020CE
:103C30002DE9F0430446A5B018B9012025B0BDE830
:103C4000F083FFF7DDFF0028F7D0D4E90223134308
:103C500046D009A8FDF7AEFB002109A8FDF704FC3A
:103C60002022002101A800F0F7FF1E4FA568DFF811
:103C700078904FF00008EDB1B8F1000F1AD1A268AA
:103C8000B5F5804F2E4602F5344228BF4FF48046EA
:103C90003346521B39464846FDF7D2FA394680462C
:103CA000324609A8FDF7C3FCA168AD1B481B00F014
:103CB000B5F9E0E701A909A8FDF742FD103409A80C
:103CC000FDF77CFB202201A9204600F0ABFF002875
:103CD000B4D0204600F07EF901A800F07BF9ACE7F3
:103CE0000220ABE78836002054360020F8B50446A1
:103CF000094E4FF0FF306718BC420CD221463046C7
:103D0000FDF760FA2146054602463046FDF714FBF2
:103D100008B92C44F0E7F8BD54360020F8B5074E3A
:103D2000054604464718BC4205D221463046FDF7F9
:103D300049FA0444F7E7601BF8BD00BF5436002081
:103D400070B5702105464FF43040FFF7E7FF00F5EE
:103D50003043B3F5344F014608D24FF43040FFF7FB
:103D6000C5FF98B92E464FF4344403E005F580664C
:103D70004FF4304431462046FFF7D0FF0B4B021979
:103D80009A4207D831462046FFF7B0FFB0FA80F0DC
:103D9000400970BD4FF46A33A2F534422946044805
:103DA000FFF70EFF4FF0FF30F0E700BF005C0400AC
:103DB0001C53000030B5044685B0002841D021488E
:103DC000FDF7FEF9702100F16F05B5FBF0F54543F5
:103DD0004FF43040FFF7A2FFB5F5804F024607D9F8
:103DE0004FF4804229461848FFF7EAFE30BFFDE74E
:103DF000854205D929461548FFF7E2FE30BFFDE7A9
:103E00002A46FF21124800F027FF124A07CA01ABD9
:103E100083E807001946204600F07CFB00B270B929
:103E2000029B702B09D12B464FF4304208490548BC
:103E3000FDF720FAB0FA80F0400905B030BD00204F
:103E4000FBE7FAE7543600203C54000075540000AC
:103E500088360020105300002DE9F04F834687B0CC
:103E60008A46002971D03A48FDF7AAF94FF4344147
:103E7000B1FBF0F444430C1B054605D0024635481F
:103E8000FFF79EFE30BFFDE7334B0593334E4FF4F3
:103E90008043B3FBF0F3434303932746DAE902235D
:103EA0004FF00009994508BF944248D2002F46D1EF
:103EB0004FF0FF3131600399121B084663EB090391
:103EC0000021994208BF904238BF02460492214621
:103ED00003AA584600F0F0FB00B220B93368013362
:103EE00001D130BFFDE73368042B23D1049B0BB312
:103EF00003F1FF3804F53443A8444FF00009B8FB40
:103F0000F5F8019305FB08F8C14511D287B9019A6C
:103F100005990F484A4449442B46FDF7ABF9A9449B
:103F20000746DAF8081004EB090000F077F8EBE731
:103F30004444B3E70A48FFF743FE4FF0FF37B7FAB0
:103F400087F0400907B0BDE8F08F0846FAE700BFE8
:103F5000543600209B53000088360020C8320020D1
:103F6000F053000038B5054688680C46FFF7E8FEB8
:103F700008B9002038BD2046FFF71CFF0028F8D004
:103F800021462846FFF768FF0028F2D00448FFF7D3
:103F900017FE2046FFF74CFEB0FA80F0400938BD0E
:103FA0001754000010B5054C2046FDF707F92046D0
:103FB000034A0449BDE81040FDF70FBF5436002006
:103FC000AC320020BF110000014B1860704700BFE9
:103FD000C832002030B593B001AC05460021412223
:103FE000204600F039FE0B49681E002310F8012F0F
:103FF000150902F00F024D5DE554E51802338A5CA5
:104000006A70402BF2D121460348FFF7D9FD13B067
:1040100030BD00BFB7540000D95400002DE9F8436B
:10402000134B46241A784443B4FBF1F4E4B2A242A1
:1040300007460E461AD00F481C70FFF7C1FDDFF887
:104040004080DFF840900025EBB29C422CBF4846F0
:1040500040460135FFF7B4FD462DF5D1B7422CBFE0
:1040600005480648BDE8F843FFF7AABDBDE8F88358
:104070005C360020C7540000D3540000D754000021
:10408000B9550000D1540000002070470048704727
:10409000ED5400002DE9F843082000F0B3FD394B42
:1040A000394F1860012000F0ADFD3860374800F04E
:1040B000F1FA374800F0F4FA0546FFF7E5FF28B1BA
:1040C000FFF7E4FF01463348FFF77AFD3248334EED
:1040D000DFF8D490FFF774FD3148FFF771FD00243D
:1040E000B046315D48460134FFF76AFD142CF8D123
:1040F0002C482D4EFFF764FD2C48FFF761FD00248E
:1041000008EB0403304693F820100134FFF758FD04
:10411000142CF5D12348FFF753FD2DB21F4A244834
:104120000021FFF74DFD05B34BF204434FF4344437
:104130001E6825681F482146FFF742FD31461E488C
:10414000FFF73EFD29461D48FFF73AFD1C48FFF7E3
:1041500037FD2046FDF710FD3B680BB100221A70B9
:104160001848FFF72DFD30BFFDE7FFF739FD0028A8
:10417000DAD000F09DF80446FFF73CFD002CEBD0B0
:10418000D2E700BF643600206036002014590000DA
:10419000C93F000054550000815500001055000033
:1041A0009A5500007C560000A7550000AE5500004F
:1041B000BB550000D4550000005600002B560000EF
:1041C000575600007F5600002DE9F04F82469FB001
:1041D0000C46002961D0324BDFF8D08093E807000D
:1041E0008DE8070003A8FDF7E5F8002103A8FDF717
:1041F0003BF9E94600254FF0FF3BD4E902230027B5
:104200009F4208BF95422ED2521B0098C8F800B0BA
:104210004FF0000163EB0703994208BF904238BF9B
:104220000246019229464A46504600F045FA00B23D
:1042300028B9D8F80030013301D130BFFDE7D8F8F4
:104240000030042B0CD1019A52B1029903A8FDF75A
:10425000EEF9019BA1681D442846FFF7DFFECCE77D
:104260001048FFF7ADFC104903A8FDF769FA1034B8
:1042700003A8FDF7A3F820220B49204600F0D2FC4A
:1042800048B12046FFF7A6FE0748FFF7A3FE00202F
:104290001FB0BDE8F08F0120FAE70846F8E700BF3D
:1042A000A85600007C56000088360020C832002046
:1042B0002DE9F043A5B048220021684600F0CCFC6F
:1042C000482200210DEB020000F0C6FC684E694850
:1042D000FFF776FC12A8FFF7ABFC3568002D00F065
:1042E000BE8065490C68002C00F0B980DDE91289B8
:1042F000D5E900234B4508BF424524D0C5E90089D4
:10430000002323700B681B7800BB022B27DC16A848
:10431000FFF760FEDDE912235848FFF751FCDDE9A5
:104320001223CDE900230124554D4FF0FF3312A98C
:1043300000202B6000F0D8F900B2B0B92B6801332F
:1043400013D130BFFDE723780133DAE7022803D128
:104350004C48FFF735FC06E0022B40F38680032132
:104360004948FFF72DFC0024DEE72B68072B6FD1AF
:104370003368DDE91267002B51D0D3E90023BB423B
:104380000ABFB24201230023DDE90001B94208BFA0
:10439000B04253D2DDE9140150EA01024ED00BB90C
:1043A000002C4BD100213948FFF70AFC12A900204C
:1043B000FFF70AFF014600283CD016A8FFF70AFEC7
:1043C000DDE912232D48FFF7FBFBDDE91423002173
:1043D0004FF46A30994208BF904222D3DDE91201BE
:1043E000CDE90223CDE90001202216A904A800F09E
:1043F00028FC10221EA90CA800F023FC0021244850
:10440000FFF7DEFB69460020FFF7ACFD044610B362
:104410002048FFF7D5FB204625B0BDE8F0830123F7
:10442000B2E74FF46A3300211B48FFF7C9FBA4B180
:104430001A48EEE71A48FFF7C3FBF8E700211948CE
:10444000FFF7BEFBDDE912230C48FFF7B9FBEEE7EF
:1044500000211548EFE71548DBE71548D9E70028A4
:104460003FF455AF02283FF473AF124871E700BF25
:1044700064360020B456000060360020DE5600008E
:10448000C8320020F55600001C570000805700007D
:10449000AC57000089580000DC570000CF580000DE
:1044A00010580000425800006E580000AF5800003D
:1044B000F35800005057000070B50C46054608B987
:1044C000022070BD0029FBD06C2100F067F8064681
:1044D00005F16C0000F07AF88642F1D105F1080090
:1044E00000F080F8C4E9000105F1100000F07AF84E
:1044F0002022C4E9020105F1180104F1100000F0C6
:10450000A0FB102205F1580104F1300000F099FBE6
:10451000002070BD38B50C46054600283AD0002969
:1045200038D00B686F2B35D970220021A06800F0BD
:1045300093FBA068184900F093F8A06802210430AA
:1045400000F08EF8A068D5E90023083000F091F85B
:10455000A068D5E90223103000F08BF8A06805F1BF
:1045600010012022183000F06CFBA068102205F129
:104570003001583000F065FB6C21A06800F00EF8A7
:10458000A368014603F16C0000F06AF870236360D1
:10459000002038BD022038BDD4B3515A10B50A4CA2
:1045A00001444FF0FF33884201D1D84310BD10F8C9
:1045B000012B5340082213F0010F4FEA530318BF99
:1045C0006340013AF7D1EEE72083B8ED48B1437874
:1045D000027843EA02228378C07843EA022340EA61
:1045E0000320704730B5002837D00478002322021A
:1045F000002544781D4314432B0243EA146322022E
:10460000002584781D4314432B0243EA14632202DD
:104610000025C4781D4314432B0243EA146322028D
:10462000002504791D4314432B0243EA146322023C
:10463000002544791D4314432B0243EA14632202EC
:1046400000258479C0791D4314432B0243EA146387
:10465000220200211043194330BD0020002130BD4B
:1046600030B10B0AC17083700B0C090E43700170DE
:10467000704768B1110AC2718171110C120E02717A
:104680001A0AC37082701A0C1B0E417142700370BB
:1046900070470000014B186000207047683600200A
:1046A00008B5044B1B6813B11B68984708BD02206E
:1046B00008BD00BF68360020044B1B6810B51BB155
:1046C00012B19B69984710BD022010BD68360020CA
:1046D00008B5044B1B681BB110B11B6A984708BD95
:1046E000022008BD6836002008B5044B1B681BB1CA
:1046F00011B15B6A984708BD022008BD68360020EA
:10470000C8207047024B1B6803B11847704700BFB1
:104710006C36002070B505460E4600F037FA0446A8
:1047200000F02EFA2044A84203D24FF0FF34204676
:1047300070BDAC42F9D84FF0FF30AC4205D3002E2B
:10474000F5D0AC4288BF241AF1E7204600F00AFAFF
:10475000431CEAD00444F0E72DE9F04704468846BC
:10476000184800211746FFF7D5FF012106464FF4F0
:104770000020FFF7CFFFA0EB060A0121814604FBD2
:104780000A60FFF7C7FF012105465044FFF7C2FF4B
:10479000013607D0B9F1FF3F04D06A1C02D0431C98
:1047A00000D03CB14FF0FF33C8F8003002203B602E
:1047B000BDE8F087401BC8F8005038602046BDE8CF
:1047C000F08700BF005C040010B5044600F0C4F997
:1047D00024B1013CB4FBF0F404FB0004204610BDFE
:1047E00038B5054600F082F9044628B9034B1D6030
:1047F000FFF788FF204638BD0224FBE76C36002017
:10480000012070472DE9F7434FF0FF33174602248C
:10481000009301930E4629B122B1936813B108B9F0
:1048200060F30F040FFA84F8B8F1000F27D101AA42
:104830006946FFF791FF0446B068FFF7C5FF0546DC
:104840007020DDF80090FFF7BFFF28444146484440
:10485000FFF760FF009D23B2451B1BB9019B9D42E2
:1048600088BF022423B2E3B9009C009B2B449C42E6
:1048700008D339463046FFF74DFE044614E04FF0AA
:10488000FF35EFE7204600F06DF9B0F1FF3F8046BD
:1048900006D00146204600F031F908B94444E4E767
:1048A000022423B2002BE4D023B24BB97020FFF7CF
:1048B0008BFF00990246B86800F028F920B1022465
:1048C000204603B0BDE8F083D6E90201034BC3E9FB
:1048D00000010120FFF716FFF2E700BF703600204D
:1048E0002DE9F347904602AA4FF0FF330E4642F8F7
:1048F000043D69460093FFF72FFFB8F1000F46D043
:10490000D8F80830002B42D005B2002D3FD100F07E
:1049100023F981467020FFF757FFD8F80440B4FB15
:10492000F9F309FB134302250746DDF800A0A3B104
:104930001849D1E90001002332198B4208BF824295
:104940000BD32046FFF740FFD8F80030984204D838
:10495000D8F80400FFF738FF0446B4FBF9F309FB6D
:10496000134383B95644F119B1FBF9F309FB13134F
:104970004BB92246D8F8080000F0C8F818B9054627
:104980000220FFF7BFFE284602B0BDE8F0870225EF
:10499000F9E700BF7036002008B50320FFF7B2FE2C
:1049A000002008BD73B5154602AA4FF0FF330E462E
:1049B00042F8043D69460093FFF7CEFEB5B1AB68FF
:1049C000A3B104B294B970206C68FFF7FDFE0099A2
:1049D000314401442246A86800F0B6F830B90446D4
:1049E0000420FFF78FFE204602B070BD0224FAE7D4
:1049F00008B50520FFF786FE002008BD70B59EB003
:104A00001EAA4FF0FF330E4642F8743D69460093EC
:104A1000FFF7A2FE044605B2AEB1A5B97022294641
:104A200002A800F019F97022009902A800F08CF891
:104A300048B9314602A8FFF73FFD05B2044615B953
:104A40000720FFF75FFE65F30F0420461EB070BD20
:104A5000F0B505469FB018B9022420461FB0F0BD3E
:104A6000002308224FF4304168460093019300F080
:104A70006BF804240646D8B96846FFF7A7FD074639
:104A80000DEB0400FFF7A2FD022811D10F4B70229D
:104A90009F4208BF0024314602A800F0DDF83CB96F
:104AA00070224FF4304102A800F04EF838B10424CF
:104AB00023B2002BD1D10620FFF724FECDE72946F3
:104AC00002A8FFF7F9FC0446F2E700BFD4B3515A3D
:104AD00008B540B14422002100F0BEF80820FFF7DD
:104AE00011FE002008BD022008BD000008B50248E4
:104AF000FCF774FB002008BD783600200A4601460A
:104B00000148FCF719BC00BF783600202DE9F843B6
:104B100006460C48DFF82C900F469046FCF750FBF9
:104B2000002405464FF0FF30444508D22B46E219D9
:104B300031194846FCF79EFB08B92C44F4E7BDE860
:104B4000F88300BF7836002013460A460146014824
:104B5000FCF776BB783600200148FCF731BB00BF7C
:104B60007836002008B501460448FCF72BFB431EAD
:104B7000033388BF4FF0FF3008BD00BF78360020F8
:104B80000148FCF723BB00BF783600200148FCF742
:104B90001BBB00BF7836002010B5054C2046FCF743
:104BA0000DFB2046034A0449BDE81040FDF715B946
:104BB00078360020AC320020BF11000070B50D4ED9
:104BC0000D4CA41BA4100025A54209D10B4E0C4C82
:104BD00000F0A6FAA41BA4100025A54205D170BDC3
:104BE00056F8253098470135EEE756F825309847B6
:104BF0000135F2E73033002030330020303300201D
:104C00003C330020024B01461868FCF7B1BF00BFDF
:104C1000CC320020024B01461868FCF7ABBF00BF46
:104C2000CC32002010B501390244904201D100205D
:104C300010BD10F8013B11F8014FA342F5D0181B2D
:104C400010BD10B5431E0A44914200D110BD11F8A9
:104C5000014B03F8014FF7E702440346934200D1AA
:104C6000704703F8011BF9E738B50546002945D020
:104C700051F8043C0C1F002BB8BFE418FDF7B6F840
:104C80001F4A1368104633B9636014602846BDE8B4
:104C90003840FDF7AFB8A3420CD92168621893429F
:104CA00004BF1A685B68636004BF52182260046026
:104CB000ECE713465A680AB1A242FAD919685818A3
:104CC000A0420BD120680144581882421960DDD1FE
:104CD000106852685A6001441960D7E702D90C2362
:104CE0002B60D3E7206821188A4204BF11685268FC
:104CF000626004BF091821605C60C7E738BD00BF6F
:104D00008036002070B5CD1C25F0030508350C2D2C
:104D100038BF0C25002D064601DBA94203D90C2320
:104D20003360002070BDFDF761F8234A1468214606
:104D300091B9224C23681BB9304600F041F820603D
:104D40002946304600F03CF8431C26D10C23336042
:104D50003046FDF74FF8E4E70B685B1B1AD40B2BCA
:104D60000FD90B60CD50CC183046FDF743F804F155
:104D70000B00231D20F00700C31A1BD05A42E2503B
:104D800070BD8C420DBF63684B686360136018BFD1
:104D90000C46E9E70C464968CAE7C41C24F0030442
:104DA000A04205D0211A304600F00AF80130CDD0DB
:104DB0002560D9E770BD00BF803600208436002012
:104DC00038B5064C0023054608462360FCF7DEFF95
:104DD000431C02D1236803B12B6038BD88760020C4
:104DE000D0400B1CD1409C46203AD340184352423D
:104DF00063469340184370479140031C90409C4683
:104E0000203A9340194352426346D34019437047B6
:104E100053B94AB9002908BF00281CBF4FF0FF3121
:104E20004FF0FF3000F07AB9ADF1080C6DE904CE17
:104E300000F006F8DDF804E0DDE9022304B0704775
:104E40002DE9F0478C460D460446089E002B51D1B3
:104E50008A4217466DD9B2FA82FEBEF1000F0BD01E
:104E6000CEF1200C01FA0EF520FA0CFC02FA0EF736
:104E70004CEA050C00FA0EF44FEA174A250CBCFB6D
:104E8000FAF81FFA87F90AFB18CC45EA0C4508FB2B
:104E900009F3AB420AD9ED1908F1FF3280F0238102
:104EA000AB4240F22081A8F102083D44ED1AA4B2C1
:104EB000B5FBFAF00AFB105544EA054400FB09F97A
:104EC000A14509D9E41900F1FF3380F00A81A14519
:104ED00040F2078102383C44A4EB090440EA084050
:104EE0000021002E61D024FA0EF400233460736098
:104EF000BDE8F0878B4207D9002E54D0002186E808
:104F000021000846BDE8F087B3FA83F1002940F09C
:104F10008E80AB4202D3824200F2FA80841A65EBA3
:104F200003050120AC46002E3FD086E81010BDE8F6
:104F3000F08712B90127B7FBF2F7B7FA87FEBEF187
:104F4000000F34D1EB1B3A0C1FFA87FC0121B3FB95
:104F5000F2F8250C02FB183345EA03450CFB08F375
:104F6000AB4207D9ED1908F1FF3002D2AB4200F293
:104F7000D1808046ED1AA3B2B5FBF2F002FB1055CA
:104F800043EA05440CFB00FCA44507D9E41900F1F1
:104F9000FF3302D2A44500F2B8801846A4EB0C04FB
:104FA00040EA08409DE731463046BDE8F087CEF143
:104FB000200405FA0EF307FA0EF720FA04F83A0C6B
:104FC00025FA04F448EA0308B4FBF2F14FEA184565
:104FD00002FB11441FFA87FC45EA044501FB0CF370
:104FE000AB4200FA0EF409D9ED1901F1FF3080F05F
:104FF0008A80AB4240F2878002393D44EB1A1FFAA7
:1050000088F5B3FBF2F002FB103345EA034500FBE1
:105010000CF3AB4207D9ED1900F1FF386FD2AB4268
:105020006DD902383D44EB1A40EA01418FE7C1F1E6
:10503000200722FA07F88B4005FA01F448EA030337
:1050400020FA07FE4FEA134CFD404EEA040EB5FB72
:10505000FCF94FEA1E440CFB19551FFA83F844EA89
:10506000054509FB08F4AC4202FA01F200FA01FA24
:1050700008D9ED1809F1FF3043D2AC4241D9A9F16A
:1050800002091D442D1B1FFA8EFEB5FBFCF00CFB24
:1050900010554EEA054400FB08F8A04507D9E4186E
:1050A00000F1FF3529D2A04527D902381C4440EA37
:1050B0000940A4EB0804A0FB02894C45C6464D46B6
:1050C00015D312D056B1BAEB0E0364EB050404FA03
:1050D00007F7CB401F43CC40376074600021BDE828
:1050E000F0871846F8E69046E0E6C245EAD2B8EB0B
:1050F000020E69EB03050138E4E72846D7E740468E
:1051000091E78146BEE7014678E702383C4445E72F
:10511000084608E7A8F102083D442BE7704700BFA6
:10512000F8B500BFF8BC08BC9E467047F8B500BF94
:10513000F8BC08BC9E467047982F8A42914437714C
:10514000CFFBC0B5A5DBB5E95BC25639F111F1590A
:10515000A4823F92D55E1CAB98AA07D8015B83124C
:10516000BE853124C37D0C55745DBE72FEB1DE80F8
:10517000A706DC9B74F19BC1C1699BE48647BEEF27
:10518000C69DC10FCCA10C246F2CE92DAA84744AB2
:10519000DCA9B05CDA88F97652513E986DC631A828
:1051A000C82703B0C77F59BFF30BE0C64791A7D507
:1051B0005163CA0667292914850AB72738211B2E8F
:1051C000FC6D2C4D130D385354730A65BB0A6A7677
:1051D0002EC9C281852C7292A1E8BFA24B661AA883
:1051E000708B4BC2A3516CC719E892D1240699D693
:1051F00085350EF470A06A1016C1A419086C371E0C
:105200004C774827B5BCB034B30C1C394AAAD84EE9
:105210004FCA9C5BF36F2E68EE828F746F63A57824
:105220001478C8840802C78CFAFFBE90EB6C50A4B7
:10523000F7A3F9BEF27871C68000000000000000FC
:10524000000000000000000000000000000000005E
:10525000000000000000000000000000000000004E
:10526000000000000000000000000000000000003E
:105270000000000000000000805200009033002079
:105280000D370000A537000001380000113800007C
:10529000B5370000F13700000537000000100000AE
:1052A00004000000010000004D230000A1230000C5
:1052B0007123000015240000AD23000059230000D5
:1052C0005D23000061230000F4340020B03400208E
:1052D000400000000100000000000000101010104D
:1052E000101000000000FFFFDEC0ADDEFE011EF169
:1052F000DEC0ADDEFF011EF140420F0020000000C5
:1053000030313233343536373839414243444546FB
:105310000040000000000000883600205B4552522B
:10532000205D204669726D776172652073697A65C8
:10533000203078256C5820726F756E646564207516
:105340007020746F20746865206E65617265737477
:1053500020736563746F7220626F756E6461727919
:10536000203078256C58206973206C6172676572F3
:10537000207468616E20746865206D6178696D7550
:105380006D206170706C69636174696F6E20736900
:105390007A65203078256C580D0A005B4552522002
:1053A0005D204170706C69636174696F6E20283094
:1053B00078256C582920646F6573206E6F74207394
:1053C00074617274206F6E20612070616765207354
:1053D000697A6520283078256C582920616C6967C6
:1053E0006E656420616464726573730D0A0D0A0052
:1053F0005B455252205D2041524D5F5543505F52F4
:105400006561642072657475726E65642030206217
:10541000797465730D0A005B424F4F545D205665E9
:1054200072696679206E657720616374697665209C
:105430006669726D776172653A0D0A005B4552527A
:10544000205D204865616465722070726F677261CB
:105450006D2073697A6520256C75206269676765C0
:1054600072207468616E20627566666572202564BC
:105470000D0A0D0A005B455252205D2048656164AB
:1054800065722070726F6772616D2073697A652032
:10549000256C7520626967676572207468616E208B
:1054A0006578706563746564206865616465722001
:1054B00025640D0A0D0A0030313233343536373861
:1054C000394142434445460D5B424F4F545D205B9A
:1054D000002B005D0D0A005D005B424F4F545D20C4
:1054E0005348413235363A2025730D0A003C657227
:1054F000726F72206D657373616765206C6561649E
:10550000696E6720746F207265626F6F743E000071
:10551000000000000000000000000000000000008B
:10552000000000000000000000000000000000007B
:10553000000000000000000000000000000000006B
:10554000000000000000000000000000000000005B
:10555000000000005B424F4F545D206572726F7215
:10556000206D657373616765206C656164696E6742
:1055700020746F207265626F6F743A2025730D0A74
:10558000005B424F4F545D204D62656420426F6F57
:10559000746C6F616465720D0A005B424F4F545D1D
:1055A0002041524D3A2000253032686858005B4255
:1055B0004F4F545D204F454D3A20005B424F4F54B2
:1055C0005D204C61796F75743A20256C7520256CCF
:1055D000580D0A005B424F4F545D204170706C695A
:1055E000636174696F6E27732073746172742061D4
:1055F0006464726573733A203078256C580D0A0024
:105600005B424F4F545D204170706C6963617469F7
:105610006F6E2773206A756D7020616464726573A4
:10562000733A203078256C580D0A005B424F4F5476
:105630005D204170706C69636174696F6E277320BF
:10564000737461636B20616464726573733A2030B4
:1056500078256C580D0A005B424F4F545D20466F11
:105660007277617264696E6720746F206170706C0C
:1056700069636174696F6E2E2E2E0D0A0D0A005B30
:10568000455252205D204661696C656420746F202C
:105690006A756D7020746F206170706C69636174DD
:1056A000696F6E210D0A000000400000000000003C
:1056B000883600205B424F4F545D20416374697609
:1056C00065206669726D7761726520696E746567C1
:1056D0007269747920636865636B3A0D0A005B42F6
:1056E0004F4F545D2056657273696F6E3A20256C7A
:1056F0006C750D0A005B424F4F545D204163746925
:105700007665206669726D7761726520736C6F745F
:1057100020697320656D7074790D0A005B455252E3
:10572000205D204661696C656420746F20626F6F34
:105730007420616374697665206170706C6963615F
:1057400074696F6E2025642074696D65730D0A009D
:105750005B455252205D204163746976652066691D
:10576000726D7761726520696E74656772697479AC
:1057700020636865636B206661696C65640D0A006F
:105780005B424F4F545D20536C6F7420256C752025
:105790006669726D7761726520696E74656772699A
:1057A000747920636865636B3A0D0A005B424F4F62
:1057B000545D205570646174652061637469766519
:1057C000206669726D77617265207573696E6720F6
:1057D000736C6F7420256C753A0D0A005B4552524C
:1057E000205D20536C6F7420256C75206669726D86
:1057F000776172652073697A6520746F6F206C61C0
:1058000072676520256C75203E20256C750D0A0099
:105810005B455252205D20536C6F7420256C7520BF
:105820006669726D7761726520696E746567726909
:10583000747920636865636B206661696C65640DCB
:105840000A005B424F4F545D20536C6F7420256CEF
:1058500075206669726D77617265206973206F6665
:10586000206F6C64657220646174650D0A005B4290
:105870004F4F545D20536C6F7420256C75206973F5
:1058800020656D7074790D0A005B424F4F545D20A6
:105890004E657720616374697665206669726D77FD
:1058A0006172652069732076616C69640D0A005B22
:1058B000455252205D204669726D77617265207590
:1058C0007064617465206661696C65640D0A005BD3
:1058D000424F4F545D20416374697665206669725A
:1058E0006D776172652075702D746F2D64617465BC
:1058F0000D0A005B455252205D2041637469766554
:10590000206669726D7761726520696E76616C6977
:10591000640D0A00E1470000014700000148000053
:1059200005480000E148000099490000A549000031
:10593000F1490000514A0000FD490000D14A000031
:105940000000000000000000000000000000000057
:105950000000000000000000000000000000000047
:105960000000000000000000000000000000000037
:105970000000000000000000000000000000000027
:105980000000000000000000000000000000000017
:105990000000000000000000000000000000000007
:1059A00000000000A4B7FF7F01000000000000001D
:1059B000594C000001000000D91A00008C7600202C
:1059C0000090D00301010000FFFFFFFFD032002054
:1059D000000000006059000080590000405900009C
:1059E00000000000000000000000000000000000B7
:1059F00000000000000000000000000000000000A7
:105A00000000000000000000000000000000000096
:105A10000000000000000000000000000000000086
:105A20000000000000000000000000000000000076
:105A300001110000A53F0000994B0000DD1000009F
:105A40000000000000000000000000000000000056
:105A500000000000000000000000000041330000D2
:085A600000000000000000003E
:020000041000EA
:0410140000100000C8
:00000001FF
